:100000000C945D000C9485000C9485000C94850084
:100010000C9485000C9485000C9485000C9485004C
:100020000C9485000C9485000C9485000C9485003C
:100030000C9485000C9485000C9485000C9485002C
:100040000C94DF020C9485000C94AD020C94870292
:100050000C9485000C9485000C9485000C9485000C
:100060000C9485000C94850000000008000201003B
:100070000003040700000000000000000000000072
:10008000250028002B0000000000240027002A0083
:10009000040404040404040402020202020203032E
:1000A0000303030301020408102040800102040836
:1000B0001020010204081020290311241FBECFEFD5
:1000C000D8E0DEBFCDBF22E0A4E2B1E001C01D92C6
:1000D000A031B207E1F711E0A0E0B1E0E8EAF8E012
:1000E00002C005900D92A432B107D9F710E0CDE51A
:1000F000D0E004C02197FE010E944C04CC35D1070A
:10010000C9F70E9468030C9452040C94000090E01C
:10011000FC01EC55FF4F249180579F4FFC018491C7
:10012000882399F090E0880F991FFC01EA57FF4F50
:10013000A591B491FC01E458FF4F859194918FB73C
:10014000F894EC91E22BEC938FBF0895CF92DF925D
:10015000EF92FF920F931F932FB7F894C09029014D
:10016000D0902A01E0902B01F0902C012FBF6C0D54
:100170007D1D8E1D9F1D4FB7F89400912901109190
:100180002A0120912B0130912C014FBF0C151D0528
:100190002E053F0528F0601771078207930758F76F
:1001A0001F910F91FF90EF90DF90CF900895E5E7BA
:1001B000F0E02491E1EBF0E09491EDE9F0E0E491DE
:1001C000EE23C9F0222339F0233001F1A8F42130C5
:1001D00019F1223029F1F0E0EE0FFF1FE458FF4F34
:1001E000A591B4912FB7F894EC91811126C0909508
:1001F0009E239C932FBF08952730A9F02830C9F083
:10020000243049F7209180002F7D03C02091800089
:100210002F7720938000DFCF24B52F7724BDDBCF4D
:1002200024B52F7DFBCF2091B0002F772093B00015
:10023000D2CF2091B0002F7DF9CF9E2BDACFAF9295
:10024000BF92CF92DF92EF92FF920F931F93CF93C3
:10025000DF936C017B018B01040F151FEB015E0125
:10026000AE18BF08C017D10759F06991D601ED91BA
:10027000FC910190F081E02DC6010995892B79F759
:10028000C501DF91CF911F910F91FF90EF90DF900B
:10029000CF90BF90AF900895FC01538D448D252FD2
:1002A00030E0842F90E0821B930B541710F0CF9610
:1002B000089501970895FC01918D828D981761F042
:1002C000A28DAE0FBF2FB11D5D968C91928D9F5F59
:1002D0009F73928F90E008958FEF9FEF0895FC0138
:1002E000918D828D981731F0828DE80FF11D858DEB
:1002F00090E008958FEF9FEF0895FC01918D228D7E
:10030000892F90E0805C9F4F821B91098F73992702
:1003100008958DE291E00E947D0121E0892B09F48E
:1003200020E0822F089580E090E0892B29F00E9440
:10033000890181110C9400000895FC01A48DA80F7F
:10034000B92FB11DA35ABF4F2C91848D90E0019617
:100350008F739927848FA689B7892C93A089B18937
:100360008C91837080648C93938D848D981306C0D8
:100370000288F389E02D80818F7D80830895EF923C
:10038000FF920F931F93CF93DF93EC0181E0888F4F
:100390009B8D8C8D98131AC0E889F989808185FF1F
:1003A00015C09FB7F894EE89FF896083E889F989C1
:1003B00080818370806480839FBF81E090E0DF91C3
:1003C000CF911F910F91FF90EF900895F62E0B8D16
:1003D00010E00F5F1F4F0F731127E02E8C8D8E11D1
:1003E0000CC00FB607FCFACFE889F989808185FF38
:1003F000F5CFCE010E949D01F1CFEB8DEC0FFD2FCB
:10040000F11DE35AFF4FF0829FB7F8940B8FEA89F2
:10041000FB8980818062CFCFCF93DF93EC01888D01
:100420008823B9F0AA89BB89E889F9898C9185FD6F
:1004300003C0808186FD0DC00FB607FCF7CF8C91FD
:1004400085FFF2CF808185FFEDCFCE010E949D0117
:10045000E9CFDF91CF9108953FB7F89480912501BE
:1004600090912601A0912701B091280126B5A89B63
:1004700005C02F3F19F00196A11DB11D3FBFBA2F36
:10048000A92F982F8827BC01CD01620F711D811DF6
:10049000911D42E0660F771F881F991F4A95D1F77B
:1004A00008958F929F92AF92BF92CF92DF92EF9278
:1004B000FF920E942C024B015C0188EEC82E83E063
:1004C000D82EE12CF12C0E942C02681979098A0996
:1004D0009B09683E734081059105A8F321E0C21A8B
:1004E000D108E108F10888EE880E83E0981EA11C6F
:1004F000B11CC114D104E104F10429F7FF90EF907D
:10050000DF90CF90BF90AF909F908F9008951F92F3
:100510000F920FB60F9211242F933F934F935F9337
:100520006F937F938F939F93AF93BF93EF93FF93BB
:100530008DE291E00E949D01FF91EF91BF91AF91FB
:100540009F918F917F916F915F914F913F912F91EB
:100550000F900FBE0F901F9018951F920F920FB61D
:100560000F9211242F938F939F93EF93FF93E0911A
:100570003D01F0913E018081E0914301F091440101
:1005800082FD1BC09081809146018F5F8F73209107
:100590004701821741F0E0914601F0E0E35DFE4F34
:1005A000958F80934601FF91EF919F918F912F91AD
:1005B0000F900FBE0F901F9018958081F4CF1F925F
:1005C0000F920FB60F9211242F933F938F939F9307
:1005D000AF93BF938091290190912A01A0912B01A3
:1005E000B0912C013091240123E0230F2D3758F5D1
:1005F0000196A11DB11D20932401809329019093A0
:100600002A01A0932B01B0932C0180912501909198
:100610002601A0912701B09128010196A11DB11DCD
:100620008093250190932601A0932701B093280180
:10063000BF91AF919F918F913F912F910F900FBEDE
:100640000F901F90189526E8230F0296A11DB11D4B
:10065000D2CFEDE2F1E01382128288EE93E0A0E0C7
:10066000B0E084839583A683B78384E091E091838F
:10067000808385EC90E09587848784EC90E0978771
:10068000868780EC90E0918B808B81EC90E0938B5F
:10069000828B82EC90E0958B848B86EC90E0978B3C
:1006A000868B118E128E138E148EEAECF1E0168278
:1006B0001782108611861286138614861586168672
:1006C0001786108A118A128A138A148A158A089545
:1006D000789484B5826084BD84B5816084BD85B51D
:1006E000826085BD85B5816085BD80916E00816029
:1006F00080936E00109281008091810082608093CF
:1007000081008091810081608093810080918000D0
:100710008160809380008091B10084608093B100FB
:100720008091B00081608093B00080917A008460F5
:1007300080937A0080917A00826080937A00809121
:100740007A00816080937A0080917A00806880933B
:100750007A001092C10010920C0210920D021092B9
:100760000E0210920F021092CC011092CD01109245
:10077000CE011092CF0168EB7BE080E090E00E9418
:10078000A6000E945102E0913D01F0913E0182E0FD
:100790008083E0913901F0913A011082E0913B01B0
:1007A000F0913C0180E1808310924501E09141018C
:1007B000F091420186E08083E0913F01F091400199
:1007C000808180618083E0913F01F09140018081D0
:1007D00088608083E0913F01F091400180818068D2
:1007E0008083E0913F01F091400180818F7D808383
:1007F0002FB7F8948091290190912A01A0912B01A3
:10080000B0912C012FBF8093CC019093CD01A09388
:10081000CE01B093CF0141E150E062E171E08DE2A1
:1008200091E00E941F016AE070E080E090E00E9489
:10083000A60081E08093E0018DE00E94870082E0C5
:100840000E94870083E00E94870084E00E94870066
:1008500085E00E94870086E00E94870087E00E9472
:10086000870082E10E94870083E10E948700C0E048
:10087000D0E081E00E94D7000E94510280E00E94F7
:10088000D7000E9451022097A1F30E94890188237A
:1008900081F30E940000EDCFEE0FFF1F0590F49151
:0808A000E02D0994F894FFCF4C
:1008A80000000000BF011F014C010C027D015B012B
:1008B8006F01564D4450565F317C315F564D445060
:0408C800560D0A00BF
:00000001FF
