:100000000C9462000C9406030C94DE020C948A009B
:100010000C948A000C948A000C948A000C948A0038
:100020000C948A000C948A000C948A000C948A0028
:100030000C948A000C948A000C948A000C948A0018
:100040000C9494020C948A000C948A000C948A00FC
:100050000C948A000C948A000C948A000C948A00F8
:100060000C948A000C948A000000000024002700F1
:100070002A0000000000250028002B0000000000DE
:1000800023002600290004040404040404040202DA
:100090000202020203030303030301020408102007
:1000A0004080010204081020010204081020000012
:1000B0000008000201000003040700000000000027
:1000C0000000390611241FBECFEFD8E0DEBFCDBF40
:1000D00012E0A0E0B1E0EEE4FEE002C005900D9277
:1000E000A835B107D9F722E0A8E5B2E001C01D921A
:1000F000A339B207E1F710E0C2E6D0E004C02197CF
:10010000FE010E941F07C136D107C9F70E942E03C6
:100110000C9425070C940000833081F028F4813082
:1001200099F08230A9F008958730A9F08830C9F09D
:100130008430B1F4809180008F7D03C08091800075
:100140008F7780938000089584B58F7784BD08955C
:1001500084B58F7DFBCF8091B0008F778093B00006
:1001600008958091B0008F7DF9CFCF93DF93282F32
:1001700030E0F901E255FF4F8491F901E656FF4F57
:10018000D491F901EA57FF4FC491CC23A1F081111A
:100190000E948C00EC2FF0E0EE0FFF1FE458FF4FA1
:1001A000A591B491EC91ED2381E090E009F480E019
:1001B000DF91CF91089580E090E0FACF1F93CF9325
:1001C000DF93282F30E0F901E255FF4F8491F901C8
:1001D000E656FF4FD491F901EA57FF4FC491CC2363
:1001E000A9F0162F81110E948C00EC2FF0E0EE0F89
:1001F000FF1FEE58FF4FA591B4918FB7F894EC9183
:10020000111108C0D095DE23DC938FBFDF91CF9111
:100210001F910895DE2BF8CFCF93DF9390E0FC0180
:10022000E656FF4F24918A579F4FFC018491882303
:10023000D1F090E0880F991FFC01E859FF4FA5917C
:10024000B491FC01EE58FF4FC591D491623071F426
:100250009FB7F8943C91822F809583238C93E881FB
:100260002E2B28839FBFDF91CF9108958FB7F894ED
:10027000EC912E2B2C938FBFF6CF806480937C0063
:1002800080917A00806480937A0080917A0086FD64
:10029000FCCF809178009091790008950F931F937F
:1002A000CF93DF9300917602109177029B01CCE00F
:1002B000D0E04CE0489FF001499FF00D1124E45E2E
:1002C000FE4FC901BE010E94F006DF01A80FB91F51
:1002D0008C91811119C02150310937FFF2CF30E0E4
:1002E00020E0C901BE010E94F006DF01A80FB91F7E
:1002F0008C91811103C02F5F3F4FF3CF021713077B
:1003000004F7245F3F4FDDCFC901DF91CF911F91EB
:100310000F9108951F93CF93DF93182FC8E0D0E07B
:10032000612F60788CE00E94DE0061E08BE00E942B
:10033000DE0060E08BE00E94DE00110F219781F764
:10034000DF91CF911F910895CF93DF93D82F8093A2
:100350005A029F70C92FC063C093000160E083E11F
:100360000E94DE008C2F0E948A018D2F0E948A013C
:1003700060E08CE00E94DE0061E083E10E94DE002C
:1003800060E082E10E94DE0061E082E1DF91CF91D6
:100390000C94DE00EF92FF920F931F93CF93DF93A5
:1003A0009CE0E92E91E0F92ED0E0C0E0082F10E0AB
:1003B000F7018081F2E0EF0EF11CB8010C2E02C0B3
:1003C000759567950A94E2F761700E94DE002196A8
:1003D000C830D10569F7DF91CF911F910F91FF9040
:1003E000EF900895FC01CB0163E070E00E94F006FD
:1003F0008130910521F00297A1F0CF0108952CE002
:1004000030E0DF010E9404072FEF33E040E050E0CE
:100410000E94950685E5829FF001839FF00D1124CF
:10042000ECCF27E030E0DF010E9404072FEF33E03C
:1004300040E050E00E94950682E9EDCFDC01ED91AD
:10044000FD918081ED91FD919081ED91FD916C91F7
:1004500063708E2309F064609F2309F06860EBE30A
:10046000F2E0E60FF11D659565956D936D917D91B7
:100470008D919D91099423C01AC012C016C010C05E
:100480001EC009C014C013C006C019C009C00DC0E9
:1004900007C00DC014C062507040804090400BC037
:1004A000615070408040904006C06E5F01C06F5F39
:1004B0007F4F8F4F9F4F9E938E937E936E930895A1
:1004C000109288021092870280916A02823040F571
:1004D000F8948FE592E00E941E02409166025091CE
:1004E0006702609168027091690278948091580265
:1004F000909159029A01281B390BC90137FD0396C7
:100500009595879595958795909388028093870216
:10051000892B41F0509359024093580281E008958D
:10052000F894DBCF80E008951F920F920FB60F92E0
:1005300011242F933F938F939F93AF93BF938091F9
:10054000700290917102A0917202B0917302309189
:100550006F0223E0230F2D3758F50196A11DB11D21
:1005600020936F028093700290937102A0937202A5
:10057000B093730280916B0290916C02A0916D0216
:10058000B0916E020196A11DB11D80936B029093F4
:100590006C02A0936D02B0936E02BF91AF919F91D8
:1005A0008F913F912F910F900FBE0F901F90189534
:1005B00026E8230F0296A11DB11DD2CF1F920F92E4
:1005C0000FB60F9211242F933F934F935F936F9326
:1005D0007F938F939F93AF93BF93EF93FF938091FC
:1005E0005D0290915E020E941E02FF91EF91BF9109
:1005F000AF919F918F917F916F915F914F913F91BB
:100600002F910F900FBE0F901F9018951F920F9271
:100610000FB60F9211242F933F934F935F936F93D5
:100620007F938F939F93AF93BF93EF93FF938091AB
:100630005B0290915C020E941E02FF91EF91BF91BC
:10064000AF919F918F917F916F915F914F913F916A
:100650002F910F900FBE0F901F901895789484B52E
:10066000826084BD84B5816084BD85B5826085BDAE
:1006700085B5816085BD80916E00816080936E003C
:10068000109281008091810082608093810080912E
:1006900081008160809381008091800081608093DF
:1006A00080008091B10084608093B1008091B0009F
:1006B00081608093B00080917A00846080937A009A
:1006C00080917A00826080937A0080917A008160C4
:1006D00080937A0080917A00806880937A001092EB
:1006E000C10061E08DE00E940C0161E083E00E94A6
:1006F0000C0161E084E00E940C0161E085E00E9451
:100700000C0161E086E00E940C0161E087E00E943C
:100710000C0161E088E00E940C0161E089E00E9428
:100720000C0161E08AE00E940C0162E081E00E941D
:100730000C0162E082E00E940C0162E080E00E9415
:100740000C0161E081E10E940C0162E080E10E9405
:100750000C0161E083E10E940C0161E08BE00E94EA
:100760000C0161E08CE00E940C0161E082E10E94DA
:100770000C0161E083E10E94DE0061E082E10E9401
:10078000DE0060E08BE00E94DE0061E08CE00E9411
:10079000DE0090E080E00E94A40184E590E0909368
:1007A00077028093760244244A94F3E05F2E612C12
:1007B000712CA0E52A2E312C11E00CE080E00E9483
:1007C000B500892B09F089C180919202882309F430
:1007D0003DC01092920280918E0290918F02A09162
:1007E0009002B09191028C509E4FAF4FBF4F2FB7E8
:1007F000F894409170025091710260917202709170
:1008000073022FBF481759076A077B0708F04CC1CE
:1008100010938D02E0918B02F0918C02EB5AFD4F08
:1008200080810E94CA012FB7F89480917002909144
:100830007102A0917202B09173022FBF80938E0259
:1008400090938F02A0939002B09391020E94600255
:100850008823F1F0809187029091880220918D0287
:10086000222309F428C120918B0230918C02820F3F
:10087000931F039663E070E00E94F00690938C0251
:1008800080938B028B5A9D4FFC0180810E94CA018C
:1008900087E00E943D01092E000CAA0BBB0BBC0196
:1008A000CD01605C7F4F8F4F9F4FE3E0660F771F56
:1008B000881F991FEA95D1F720E034E040E050E02E
:1008C0000E949506F901809183029091840200971D
:1008D00069F18130910529F530930B0120930A01CC
:1008E000B90176956795A1E06A27617060938202ED
:1008F0003695279536952795217020938102309162
:100900008002231771F02093800240E157E2509358
:100910000901409308015093070140930601209379
:100920007F020197909384028093830280910A0151
:1009300090910B01E817F90761F080918302909183
:100940008402892B31F483E090E0909384028093B9
:10095000830286E00E943D01209108013091090147
:10096000FC01E21BF30B9F01F7FF03C031952195BA
:10097000310926303105DCF090930901809308019C
:1009800020918102211109C08632F1E09F070CF409
:10099000CAC08552914010937F0260918B02709182
:1009A0008C020E94F20190937E0280937D0280E18E
:1009B0000E94B500892B21F4809182028111B6C07A
:1009C0001093050181E00E943D01209103013091C7
:1009D0000401AC01421B530B9A0157FF03C0319530
:1009E000219531092630310534F420918702309168
:1009F0008802232B71F0909304018093030160918E
:100A00008B0270918C020E94F20190937B02809382
:100A10007A0280E00E943D0120917A0230917B02AF
:100A2000280F391F80917D0290917E02280F391F77
:100A30008091010190910201821B930B97FF03C0EB
:100A400091958195910906970CF4B4C030930201F9
:100A500020930101032E000C440B550B2A5F3F4FDE
:100A60004F4F5F4FA4E5B0E00E94B406A30192018E
:100A70000E94950669018090850290908602E901A6
:100A8000089D9001099D300D1124245E3E4FCE013A
:100A90006CE070E00E94F006F901E80FF91F808118
:100AA00081114EC02196F3CFE0918902F0918A0224
:100AB000E75BFD4FB5CE2091890230918A02820F0B
:100AC000931F0C966CE070E00E94F00690938A02EF
:100AD00080938902875B9D4FD7CE0E94600281116F
:100AE00004C080919202811119C080918502909179
:100AF00086022091870230918802820F931F0A9606
:100B00006AE070E00E94F00690938602809385026E
:100B1000825C9D4FFC0180810E94CA011093920269
:100B200010928D02B5CE10927F0237CF80910501D1
:100B3000882309F447CF10937C021092050142CF1D
:100B4000A0907602B0907702AC16BD060CF42C96FD
:100B5000B601C4010E944E019E012C193D09C81A1C
:100B6000D90A2C153D050CF0EC01D0937902C09305
:100B70007802E0908902F0908A02CE0DDF1DAC165B
:100B8000BD060CF064C0B5016E197F09C4010E9456
:100B90004E018E0D9F1D9093790280937802809173
:100BA000780290917902A816B90624F4B0927902DD
:100BB000A0927802C0917402D0917502209761F0E2
:100BC000C130D10521F460E08DE00E94DE00219764
:100BD000D0937502C0937402C0917802D0917902CB
:100BE0008091060190910701C817D907A9F180915A
:100BF0008202882321F080917C028823F1F061E059
:100C00008DE00E94DE003092750220927402809185
:100C10007F0261E0811101C060E081E10E94DE009D
:100C2000FE01EE0FFF1FEC56FE4F808191810E9466
:100C3000A401D0930701C093060110927C0280E0CA
:100C400090E0892B09F4BACD0E940000B5CDD09375
:100C50007902C0937802A3CF80917C02882369F344
:100C600061E08DE00E94DE003092750220927402F5
:100C7000E4CFCF93DF9362E082E00E940C0162E058
:100C800081E00E940C01E8E8F0E0E491F0E0EE0F72
:100C9000FF1FE458FF4FA591B491B0936002A09359
:100CA0005F02ECE9F0E0449140936302E7E8F0E092
:100CB000E491F0E0EE0FFF1FE458FF4FC591D4918F
:100CC000D0936202C0936102EBE9F0E0E491E0931B
:100CD00064021092660210926702109268021092EB
:100CE00069022BE33FE1C9010197F1F79C91842F41
:100CF000892391E009F490E08881E82309F092606B
:100D0000909365028FE592E090935C0280935B0282
:100D1000809169008C7F816080936900E89A81E00E
:100D200080936A02DF91CF910895052E97FB1EF400
:100D300000940E94AC0657FD07D00E94BF0607FC36
:100D400003D04EF40C94AC06509540953095219507
:100D50003F4F4F4F5F4F08959095809570956195E7
:100D60007F4F8F4F9F4F08950E94E106A59F900DE2
:100D7000B49F900DA49F800D911D11240895A1E2B0
:100D80001A2EAA1BBB1BFD010DC0AA1FBB1FEE1F05
:100D9000FF1FA217B307E407F50720F0A21BB30B50
:100DA000E40BF50B661F771F881F991F1A9469F7CC
:100DB00060957095809590959B01AC01BD01CF0128
:100DC0000895A29FB001B39FC001A39F700D811D24
:100DD0001124911DB29F700D811D1124911D089544
:100DE00097FB072E16F4009407D077FD09D00E94D8
:100DF0000B0707FC05D03EF4909581959F4F089511
:100E0000709561957F4F08950E94E106B7FF0895A0
:100E1000821B930B0895AA1BBB1B51E107C0AA1F9D
:100E2000BB1FA617B70710F0A61BB70B881F991F8B
:100E30005A95A9F780959095BC01CD010895EE0FC4
:0E0E4000FF1F0590F491E02D0994F894FFCF68
:100E4E001010271027011027102710270300040069
:100E5E00050006000700080009000A000100010055
:100E6E00010100010001000101000100010000016B
:100E7E00000100000100010001000001000100015D
:100E8E00010001010001000101000100010000014B
:100E9E00000100010000010001000101000100013C
:100EAE00010000010100010100010001000100012B
:100EBE00010000010001010100000100010101011A
:100ECE00010101010101010101000000000000000B
:100EDE00000000000000310062009200C300F40028
:100EEE00250155018601B701E801180249027A026F
:100EFE00AB02DB020C033D036E039E03CF03000423
:100F0E00310461049204C304F404240555058605D6
:100F1E00B705E705180649067A06AA06DB060C078A
:100F2E003D076D079E07CF0700083008610892083D
:100F3E00C308F308240955098609B609E709180AF2
:100F4E00490A790AAA0ADB0A0C0B3C0B6D0B9E0BA5
:100F5E00CF0BFF0B300C610C920CC20CF30C240D5A
:100F6E00550D850DB60DE70D180E480E790EAA0E0D
:100F7E00DB0E0B0F3C0F6D0F9E0FCE0FFF0F3F06BC
:100F8E005B4F666D7D077F6F8039B95EDE7971F1DB
:080F9E003DBD77F77C0840011E
:107800000C94343C0C94513C0C94513C0C94513CE1
:107810000C94513C0C94513C0C94513C0C94513CB4
:107820000C94513C0C94513C0C94513C0C94513CA4
:107830000C94513C0C94513C0C94513C0C94513C94
:107840000C94513C0C94513C0C94513C0C94513C84
:107850000C94513C0C94513C0C94513C0C94513C74
:107860000C94513C0C94513C11241FBECFEFD8E036
:10787000DEBFCDBF11E0A0E0B1E0ECE9FFE702C060
:1078800005900D92A230B107D9F712E0A2E0B1E065
:1078900001C01D92AD30B107E1F70E942D3D0C945F
:1078A000CC3F0C94003C982F959595959595959582
:1078B000905D8F708A307CF0282F295A8091C0000B
:1078C00085FFFCCF9093C6008091C00085FFFCCF60
:1078D0002093C6000895282F205DF0CF982F809127
:1078E000C00085FFFCCF9093C6000895EF92FF92F1
:1078F0000F931F93EE24FF2487018091C00087FD22
:1079000017C00894E11CF11C011D111D81E4E8164B
:1079100082E4F8068FE0080780E0180770F3E09132
:107920000401F091050109958091C00087FFE9CF1E
:107930008091C6001F910F91FF90EF9008950E94D3
:10794000763C982F8091C00085FFFCCF9093C600B5
:1079500091362CF490330CF09053892F089597555D
:10796000892F08951F930E949F3C182F0E949F3CCF
:107970001295107F810F1F9108951F93182F882350
:1079800021F00E94763C1150E1F71F9108951F935A
:10799000182F0E94763C803249F0809103018F5F5E
:1079A000809303018530C1F01F9108958091C0003C
:1079B00085FFFCCF84E18093C6008091C00085FFE5
:1079C000FCCF1093C6008091C00085FFFCCF80E102
:1079D0008093C6001F910895E0910401F091050184
:1079E00009951F9108950E94763C803241F0809164
:1079F00003018F5F80930301853081F008958091AA
:107A0000C00085FFFCCF84E18093C6008091C00058
:107A100085FFFCCF80E18093C6000895E0910401CA
:107A2000F09105010995089540E951E08823A1F0FE
:107A30002D9A28EE33E0FA013197F1F721503040CA
:107A4000D1F72D9828EE33E0FA013197F1F7215064
:107A50003040D1F7815061F708953F924F925F9285
:107A60006F927F928F929F92AF92BF92CF92DF924E
:107A7000EF92FF920F931F93CF93DF93000080E16B
:107A80008093C4001092C50088E18093C10086E015
:107A90008093C2005098589A259A81E00E94143D24
:107AA00024E1F22E9EE1E92E85E9D82E0FE0C02ECA
:107AB00010E1B12EAA24A394B1E49B2EA6E58A2E50
:107AC000F2E57F2EE0E26E2E79E4572E63E5462E36
:107AD00050E5352E0E94763C8033B1F18133B9F107
:107AE000803409F46FC0813409F476C0823409F41B
:107AF00085C0853409F488C0803531F1823521F1A3
:107B0000813511F1853509F485C0863509F48DC0BC
:107B1000843609F496C0843709F403C1853709F423
:107B200072C1863709F466C0809103018F5F80932C
:107B30000301853079F6E0910401F0910501099582
:107B40000E94763C803351F60E94F33CC3CF0E94E2
:107B5000763C803249F78091C00085FFFCCFF092DF
:107B6000C6008091C00085FFFCCF9092C600809136
:107B7000C00085FFFCCF8092C6008091C00085FFC9
:107B8000FCCF7092C6008091C00085FFFCCF609250
:107B9000C6008091C00085FFFCCF5092C600809146
:107BA000C00085FFFCCF4092C6008091C00085FFD9
:107BB000FCCF3092C6008091C00085FFFCCFB09210
:107BC000C60088CF0E94763C863808F4BDCF0E945C
:107BD000763C0E94F33C7ECF0E94763C803809F4CC
:107BE0009CC0813809F40BC1823809F43CC1883942
:107BF00009F48FC080E00E94C73C6CCF84E10E94F2
:107C0000BD3C0E94F33C66CF85E00E94BD3C0E94D3
:107C1000F33C60CF0E94763C809306010E94763C44
:107C2000809307010E94F33C55CF0E94763C80333D
:107C300009F41DC183E00E94BD3C80E00E94C73C66
:107C400049CF0E94763C809309020E94763C809343
:107C5000080280910C028E7F80930C020E94763C79
:107C6000853409F415C18091080290910902892B8D
:107C700089F000E010E00E94763CF801E85FFE4FDA
:107C800080830F5F1F4F80910802909109020817AF
:107C9000190788F30E94763C803209F045CF809125
:107CA0000C0280FF01C16091060170910701660F0F
:107CB000771F7093070160930601A0910802B091AD
:107CC00009021097C9F0E8E0F1E09B01AD014E0F09
:107CD0005F1FF999FECF32BD21BD819180BDFA9A17
:107CE000F99A2F5F3F4FE417F50799F76A0F7B1F4B
:107CF00070930701609306018091C00085FFFCCF5F
:107D0000F092C6008091C00085FFFCCFB092C60003
:107D1000E1CE83E00E94C73CDDCE82E00E94C73CFA
:107D2000D9CE0E94763C809309020E94763C8093D3
:107D300008028091060190910701880F991F909386
:107D40000701809306010E94763C853409F4A6C0A1
:107D500080910C028E7F80930C020E94763C8032D0
:107D600009F0B8CE8091C00085FFFCCFF092C6002C
:107D7000609108027091090261157105B9F140E046
:107D800050E080910C02A82FA170B82FB27011C0E2
:107D9000BB2309F45CC0E0910601F0910701319624
:107DA000F0930701E09306014F5F5F4F46175707B7
:107DB000E8F4AA2369F3F999FECF209106013091E6
:107DC000070132BD21BDF89A90B58091C00085FFB2
:107DD000FCCF9093C6002F5F3F4F30930701209355
:107DE00006014F5F5F4F4617570718F38091C00099
:107DF00085FDE5CE8091C00085FFF8CFE0CE81E023
:107E00000E94C73C67CE0E94763C803209F08CCE3F
:107E10008091C00085FFFCCFF092C6008091C00029
:107E200085FFFCCFE092C6008091C00085FFFCCFAB
:107E3000D092C6008091C00085FFFCCFC092C600E2
:107E40008091C00085FFFCCFB092C60043CEE09188
:107E50000601F091070194918091C00085FFFCCF4D
:107E60009093C6009CCF80E10E94C73C33CE0E9415
:107E7000763C0E94763C182F0E94763C112309F430
:107E800083C0113009F484C08FE00E94C73C22CE29
:107E900080910C02816080930C02E5CE80910C02EF
:107EA000816080930C0259CF809107018823880F4D
:107EB000880B8A2180930B02809106019091070123
:107EC000880F991F90930701809306018091080203
:107ED00080FF09C080910802909109020196909359
:107EE000090280930802F894F999FECF1127E091D6
:107EF0000601F0910701C8E0D1E08091080290915D
:107F00000902103091F40091570001700130D9F34B
:107F100003E000935700E89500915700017001308D
:107F2000D9F301E100935700E89509901990009169
:107F3000570001700130D9F301E000935700E89534
:107F40001395103498F011270091570001700130FB
:107F5000D9F305E000935700E895009157000170B0
:107F60000130D9F301E100935700E895329602976A
:107F700009F0C7CF103011F00296E5CF112480919F
:107F8000C00085FFB9CEBCCE8EE10E94C73CA2CD19
:0C7F900085E90E94C73C9ECDF894FFCF0D
:027F9C00800063
:040000030000780081
:00000001FF